:020000040800F2
:10000000704A0020C1010008ED0C00082B0B00080D
:10001000C10B0008B70600081567000800000000C3
:10002000000000000000000000000000A1620008C5
:100030001D0900080000000041030008E12E00082F
:10004000FB010008FB010008FB010008FB010008A0
:10005000FB010008FB01000821090008FB01000862
:10006000FB010008FB010008FB010008FB01000880
:10007000FB010008FB010008FB010008FB01000870
:10008000FB010008FB010008FB010008FB01000860
:10009000FB010008FB010008FB010008FB01000850
:1000A000FB010008FB010008FB010008FB01000840
:1000B000FB010008FB010008FB010008FB01000830
:1000C000FB010008FB010008FB010008FB01000820
:1000D000FB0100086D640008FB010008FB0100083B
:1000E000FB010008FB010008FB010008FB01000800
:1000F000FB010008FB010008FB010008FB010008F0
:10010000FB010008FB010008FB010008FB010008DF
:10011000FB010008FB010008FB010008FB010008CF
:10012000FB010008FB010008FB010008FB010008BF
:10013000FB010008FB010008FB010008FB010008AF
:10014000FB010008FB010008FB010008FB0100089F
:10015000FB010008FB010008FB010008FB0100088F
:10016000FB010008FB010008FB010008FB0100087F
:10017000FB010008FB010008FB010008FB0100086F
:10018000FB010008FB010008FB010008FB0100085F
:10019000FB010008FB010008FB010008FB0100084F
:1001A000FB010008FB010008FB010008DFF80CD090
:1001B00000F05CF80048004735690008704A0020EC
:1001C000DFF83800016841F470010160BFF34F8F20
:1001D000DFF82C00016821F040410160BFF36F8F10
:1001E0000848804708480047FEE7FEE7FEE7FEE7CD
:1001F000FEE7FEE7FEE7FEE7FEE7FEE788ED00E04C
:1002000034EF00E005640008AD01000872B67047E5
:1002100062B67047EFF3108072B6704780F31088B3
:10022000704730BF704720BF7047B0FA80F070470A
:1002300090FAA0F0B0FA80F0704790FAA0F0704702
:1002400030B50B46014600202022012409E021FAA6
:1002500002F59D4205D303FA02F5491B04FA02F5A3
:100260002844151EA2F10102F1DC30BD064C074DF9
:1002700006E0E06840F0010394E807009847103476
:10028000AC42F6D3FFF796FF946B0008B46B0008FE
:10029000EFF3098141B1F1EE101A40F8041D20ED91
:1002A000200A3B490A6810607047B0EC200A02C877
:1002B000E1EE101A37490A681060704772B64EF6C0
:1002C0002250CEF2000040F2FF01C0F200010170A6
:1002D00040F22010C2F20000016881F3088840F269
:1002E0008E00C2F2000040F28F01C2F200010A78D3
:1002F000027040F21815C2F2000540F21C11C2F261
:1003000000010A682A60106880F30988EFF31480FE
:1003100040F0020080F31488BFF36F8FBDE8F00F48
:100320000FBCBDE8005006BC62B608471A484FF043
:1003300080510160704718484FF08051016070474C
:1003400072B6EFF3098020E9F00F40F21815C2F2FF
:1003500000052E683060744602F094FC40F28E0076
:10036000C2F2000040F28F01C2F200010A7802706E
:1003700040F21C11C2F200010A682A6044F0F40E37
:100380001068B0E8F00F80F3098862B6704700008B
:10039000180100201C01002004ED00E008B5002633
:1003A00000F07AF9054667E06B46002211461046D8
:1003B00002F01CF900F006FA044600BF00BF00BFBF
:1003C000FFF728FF064600BF00F012FA00BF2B48D7
:1003D0000078401C2949087008460078012801D19E
:1003E00003F0F8FF00BF00F01DFA00BF3046FFF732
:1003F00015FF00BF00BF00BF2148B5FBF0F0B4FB04
:10040000F0F739461FA006F087F900BF00BF00BF14
:10041000FFF700FF064600BF00F0EAF900BF1748EB
:100420000078401E1549087008460078D0B903F0DE
:10043000DFFF1A48008800280BDD00BF00F0F2F94A
:1004400000BF3046FFF7EAFE00BF00BF03F098FF91
:1004500011E000BF00F0E6F900BF3046FFF7DEFE16
:1004600000BF08E000BF00F0DDF900BF3046FFF735
:10047000D5FE00BF00BF00BF96E70000A800002027
:1004800040420F000D0AD7EEB4F3D6D0B6CFCAB1B2
:10049000BCE4CAC7256475730D0A00006C00002017
:1004A00070B58AB0064600F0FEF800F006F900F0DC
:1004B000F3F8044629480068B4FBF0F5284602F03A
:1004C0002FFD00F089FB09A801F0D2FB00F064F9D0
:1004D00009AA0021012001F067FA09A80421462396
:1004E0001F4ACDE900101FA1224800F0D9FD09A83C
:1004F000032100220592CDE90621089032204FF415
:10050000007133221C4BCDE90132CDE903100320E9
:1005100000231A4A1AA100901D4801F033FC09A8D3
:10052000032100220592CDE90621089032204FF4E4
:1005300000713322174BCDE90132CDE903100320BE
:100540000023154A15A10090184801F01BFC09A9C9
:10055000002001F063FD0AB070BD0000F4690008DE
:10056000480100204D656D20466F722054657374FC
:100570000000000028010020C4060020B10500088A
:10058000417070205461736B205573617274000068
:100590002C030020C40E00209D0300084170702031
:1005A0005461736B204B657900000000F803002054
:1005B0000EB5002567E002A8002301AA19460090A5
:1005C000184601F06BFE044600BF00BF00BFFFF7F6
:1005D00021FE054600BF00F00BF900BF2A48007855
:1005E000401C2949087008460078012801D103F011
:1005F000F1FE00BF00F016F900BF2846FFF70EFE1F
:1006000000BF00BF00BF217820A006F085F800BF22
:1006100000BF00BFFFF7FEFD054600BF00F0E8F891
:1006200000BF19480078401E174908700846007836
:10063000D0B903F0DDFE1648008800280BDD00BFAE
:1006400000F0F0F800BF2846FFF7E8FD00BF00BF4C
:1006500003F096FE11E000BF00F0E4F800BF28466A
:10066000FFF7DCFD00BF08E000BF00F0DBF800BFD3
:100670002846FFF7D3FD00BF00BF00BF02AA2146F6
:10068000044800F0E7FD96E7A8000020256300007D
:100690006C000020280100201FB5684605F08CFD85
:1006A000019804B010BD10B500F0AAF900F072FA7C
:1006B00005F0DCFF10BD00BFFEE710B500F0FEF84E
:1006C00000F004F800F0F4F810BD000070B500264A
:1006D00000201849088018490880184908601849FE
:1006E0000860184908601849086018490860002423
:1006F00000BFFFF78FFD064600BF00250BE000207E
:100700001049086000F074F800F08CF80D4800689B
:100710000444681C85B2002DF1D00C480460002010
:10072000084908600849086000BF3046FFF776FDB9
:1007300000BF70BD1400002016000020180000202B
:100740001C000020240000202800002020000020A1
:1007500001460846044A1268904203D9024A1268C8
:10076000801A00E0002070472000002070B50025AE
:1007700000BFFFF74FFD054600BF0648046800BFF5
:100780002846FFF74BFD00BF2046FFF7E1FF064676
:10079000304670BD2400002070B50025FFF7E6FF4D
:1007A000044600BFFFF736FD054600BF00200449A0
:1007B000086000BF2846FFF731FD00BF204670BD2E
:1007C0002400002070B5002500BFFFF723FD05467B
:1007D00000BF0648046800BF2846FFF71FFD00BFA2
:1007E0002046FFF7B5FF0646304670BD28000020C2
:1007F00010B509480088401C074908800748008850
:1008000018B900F085F80649086004480088401CC3
:100810000249088010BD00001400002016000020CE
:100820001800002010B50F480088401E0D490880B0
:1008300008460088A0B900F06BF80B49086008462C
:1008400000680A490968441A09480068A04201D2B0
:100850000748046007480068A04201D205480460C8
:1008600010BD0000160000201C0000201800002011
:10087000240000202800002010B5002400BF00BF85
:10088000FFF7C8FC044600BFFFF7B2FF00BF10210E
:10089000064800F097F900BFFFF7C4FF00BF2046ED
:1008A000FFF7BCFC00BF00BF10BD0000C416002055
:1008B00010B5FFF7E1FF10BD00BFFEE710B5002047
:1008C0000249086000F00AF810BD00001000002086
:1008D00001490860704700001000002010B5FFF7C4
:1008E000DBFE04460848006840F080700649086056
:1008F0000020064948600846006840F00100086092
:100900002046FFF7E5FF10BDFCED00E0001000E021
:100910000149486870470000001000E0704700007F
:1009200008B500F039FB012000F014F838B16A4630
:100930000021044801F076FF012000F005F800F0E6
:1009400041FB08BDF8030020014908607047000022
:10095000143C014001460020034A12680A400AB1D3
:10096000012000E000207047143C01400021234991
:100970008279002A3AD00A46126803689A430B46E5
:100980001A600A1D126803689A430B1D1A600279E7
:1009900011440A6803681A430A60184A0832126848
:1009A00003689A43154B08331A601A1D12680368CE
:1009B0009A43124B0C331A604279102A0ED11A1F37
:1009C000126803681A430D4B08331A601A1D126827
:1009D00003681A43094B0C331A600DE0074942794A
:1009E00011440A6803681A430A6005E00279114459
:1009F0000A6803689A430A6070470000003C01409F
:100A00001FB50121084605F0B7FB01200290002028
:100A10008DF80C0002208DF80F0002A90B4800F0A1
:100A200017F80021084605F03DFC01200090002049
:100A30008DF8040008208DF8050001208DF80600CF
:100A40006846FFF793FF00F052F91FBD0000024017
:100A5000F0B50A4600210023002400BF3DE0012537
:100A600005FA01F3156805EA03049C4234D10568D0
:100A70004F000326BE40B543056015794E00B540D2
:100A80000668354305601579012D02D01579022DD0
:100A900016D185684F000326BE40B5438560557961
:100AA0004E00B540866835438560456801268E4016
:100AB000B5434560456896798E40B6B2354345608A
:100AC000C5684F000326BE40B543C560D5794E00CA
:100AD000B540C6683543C560491C1029BFD3F0BD79
:100AE000F0B5002300244D07ED0E02FA05F3CE10F9
:100AF00000F1200555F826504E07F70E0F26BE4090
:100B0000B543CF1000F1200646F82750CE1000F173
:100B1000200555F8265045EA0304CE1000F12005C3
:100B200045F82640F0BD0183704700BFFEE7000096
:100B30001CB50121802005F01FFB4FF48060009060
:100B400001208DF8040000208DF8060001208DF8AA
:100B5000070002208DF8050069460D48FFF778FF71
:100B60000121802005F008FB4FF4006000906946E9
:100B70000748FFF76DFF0121802005F0FDFA4FF4D3
:100B80008050009069460248FFF762FF1CBD0000DC
:100B9000001C024010B5FFF7CBFF4FF480610748FF
:100BA000FFF7C1FF4FF400610448FFF7BCFF4FF4AB
:100BB00080510248FFF7B7FF10BD0000001C024043
:100BC00000BFFEE730B505460C4622460021284608
:100BD00000F062F830BD00003EB500200C4908600E
:100BE0000C4C02A801214FF440632246CDE90010CD
:100BF00009490AA000F016F8BDF8080042F2107189
:100C0000884203D000BFFFF757FE00BF3EBD000083
:100C10002C000020D4160020D422002048656170EA
:100C2000000000002DE9F84F05460E4617461C4609
:100C3000DDE90A894FF0000A00BF00BFFFF7EAFABA
:100C4000824600BFFFF7D4FD00BF43463A46314617
:100C50002846009400F010F800BFFFF7E3FD00BF46
:100C60005046FFF7DBFA00BF00BF42F21070A9F850
:100C70000000BDE8F88F000030B5039C0A60651ED7
:100C800015444D608A60034D2D68CD600B61014DA8
:100C9000296030BD2C0000202DE9F04105460B46AF
:100CA00094460027002402E03F021F43641C042CEA
:100CB000FAD3604605F00306294646B1344603E000
:100CC00001F8013B401E641C08B1042CF8D30A460D
:100CD00001E080C2001F0428FBD2114602E001F8A7
:100CE000013B401E0028FAD1BDE8F081704708B5ED
:100CF0004FF4C06000F060F806208DF8000000207E
:100D00008DF801008DF8020001208DF8030068467F
:100D100000F016F808BD08B54FF4E06000F04CF89C
:100D200025208DF8000000208DF8010001208DF8AD
:100D300002008DF80300684600F002F808BD0000CC
:100D400070B5002100230F22C4781CB3174C24680F
:100D500004F4E064C4F5E064C4F30721C1F10404C1
:100D6000E3B20A4144789C40E1B2847814402143C4
:100D70000C07210E0E4C05786155047804F01F0510
:100D80000124AC4005786D11AD0005F1E025C5F8F2
:100D9000004109E0047804F01F050124AC40054D32
:100DA0000678761145F8264070BD00000CED00E095
:100DB00000E400E080E100E002490143024A1160E2
:100DC000704700000000FA050CED00E070470000DD
:100DD00010B50348006810B101480068804710BD95
:100DE0004400002070B5044600F0C2F800204849D5
:100DF00008704849087048490870484908604849DF
:100E000008604849087048490870484908704849CE
:100E100008604849086048490860484908704848DF
:100E200000680A21B0FBF1F04649086046480068B6
:100E300058B14648056845B14348066803E0761E48
:100E4000002028602D1D002EF9D1002040490860A7
:100E500040490860404908604049086040490860CE
:100E600040490860404908604049087003F0D2F8E2
:100E700003F0D0F9204602F041F9208800B170BD9E
:100E8000204602F073FD208800B1F8E7204602F00A
:100E900079FD208800B1F2E7204602F001FF2088AA
:100EA00000B1ECE7204603F0E5F8208800B1E6E762
:100EB000204603F031FB208800B1E0E7204603F034
:100EC00009FF208800B1DAE7204602F0A7FC20885D
:100ED00000B1D4E7204602F0B3FA208800B1CEE793
:100EE000204604F0C7FF208800B1C8E7204603F081
:100EF000C5FD208800B1C2E7204605F01FF8208814
:100F000000B1BCE702F024F8FFF760FF00BFB6E7CE
:100F10005800002060000020A800002018010020D8
:100F20001C0100208E0000208F0000209000002077
:100F30009C000020A0000020A4000020B0000020A1
:100F4000F4690008AC000020C4690008C06900080A
:100F5000380000203C000020400000204400002019
:100F6000480000204C00002050000020DE0000203F
:100F7000064800680649096800EB810005490860D9
:100F80000846006820F0070008607047C069000844
:100F9000C46900082001002008480078012800D01A
:100FA000704707480078FA2800DBF9E70448007822
:100FB000401C0349087000BFF2E7000060000020F9
:100FC0005800002010B500242D480078012800D0DA
:100FD00010BD00BFFFF71EF9044600BF2948007886
:100FE00028B900BF2046FFF719F900BFF0E72548F0
:100FF0000078401E2349087008460078002805DD67
:1010000000BF2046FFF70AF900BFE1E71E4800785D
:10101000002805DD00BF2046FFF700F900BFD7E735
:1010200002F0E4FF194908700846007800EB400020
:10103000174951F82000174908600846006816490A
:101040000968884205D100BF2046FFF7E7F800BFD6
:10105000BEE710480068D0F89400401C0D490968AC
:10106000C1F894000D480068401C0C490860FFF767
:1010700062F900BF2046FFF7D1F800BF00BFA7E725
:101080006000002058000020A80000208F000020F1
:10109000DC3400201C01002018010020D4000020B6
:1010A0002DE9FF4F83B0044615461F46DDE9109633
:1010B000002000902DB945F2BB60308007B0BDE83C
:1010C000F08F022F03DA45F2BC603080F6E7B9F109
:1010D000040F03D245F2C1603080EFE74FF0030AFE
:1010E000BAF1000F0DD005EA0A0018B145F2BB6055
:1010F0003080E3E709EA0A0018B145F2C1603080A8
:10110000DCE7AB46A846781E80B201900020029032
:1011100007E0C844CBF80080C3460298401C80B268
:101120000290DDE901108842F3DB0020CBF80000DB
:1011300000BF00BF00BFFFF76DF8009000BFFFF7D2
:1011400057FB00BF24480078401C2349087008461C
:101150000078012801D103F03DF900BFFFF762FBE1
:1011600000BF0098FFF75AF800BF00BF00BF1B4840
:1011700020600498A0606560E560A7826782A4F89B
:101180001090204602F0DEFB15480088401C1449F0
:10119000088000BF00BF00BFFFF73CF8009000BF11
:1011A000FFF726FB00BF0C480078401E0A49087074
:1011B0000846007808B903F01BF900BFFFF732FBBF
:1011C00000BF0098FFF72AF800BF00BF00BF002053
:1011D000308000BF72E70000A80000204D454D2080
:1011E000840000202DE9F04104460D4600272CB96B
:1011F00045F2BF6028800020BDE8F08100BF00BF3D
:10120000FFF708F8074600BFFFF7F2FA00BFA08A11
:1012100068B900BFFFF706FB00BF3846FEF7FEFFC8
:1012200000BF00BF45F2C26028800020E4E7E66806
:101230003068E060A08A401EA08200BFFFF7F2FA8B
:1012400000BF3846FEF7EAFF00BF00BF002028803D
:101250003046D1E72DE9F04104460E4615460027F9
:1012600024B945F2BF602880BDE8F0811EB945F27F
:10127000BE602880F8E700BF00BFFEF7CBFF07463F
:1012800000BFFFF7B5FA00BFA08A618A88420CDB75
:1012900000BFFFF7C7FA00BF3846FEF7BFFF00BF29
:1012A00000BF45F2BA602880DEE7E0683060E660A3
:1012B000A08A401CA08200BFFFF7B4FA00BF3846E6
:1012C000FEF7ACFF00BF00BF0020288000BFCBE7C7
:1012D0002DE9F04104460E461546002724B945F68F
:1012E000C3502880BDE8F08100BF00BF00BFFEF7FB
:1012F00091FF074600BFFFF77BFA00BF2548007843
:10130000401C2449087008460078012801D103F0E8
:1013100061F800BFFFF786FA00BF3846FEF77EFF90
:1013200000BF00BF00BF1C48206066600020206234
:10133000606284F82800E06204F1080002F061FDB8
:10134000204602F03DFC15480088401C13490880E7
:1013500000BF00BF00BFFEF75DFF074600BFFFF7FD
:1013600047FA00BF0B480078401E0A49087008463B
:10137000007808B903F03CF800BFFFF753FA00BF4C
:101380003846FEF74BFF00BF00BF00BF002028809B
:1013900000BFA7E7A80000204D5554588C0000203E
:1013A0002DE9F04788B00546894617461C46109E31
:1013B0004FF0000A2DB945F6C350308008B0BDE8A3
:1013C000F0871FB1B7F5004F02D100E000BF03E086
:1013D00045F625603080F1E700BF7F4928688842E4
:1013E00003D045F6C4503080E8E70CB100202060FF
:1013F00000BF00BFFEF70EFF824600BFFFF7F8F9FF
:1014000000BF95F82800C8B97448006868620120D8
:1014100085F828000CB1E86A206029466F4800680A
:1014200002F0E6FB00BFFFF7FDF900BF5046FEF7F4
:10143000F5FE00BF00BF00203080BFE76749686A43
:101440000968884214D195F82800401C85F82800C6
:101450000CB1E86A206000BFFFF7E4F900BF504616
:10146000FEF7DCFE00BF00BF45F282703080A5E7CA
:1014700007F4004060B100BFFFF7D4F900BF504649
:10148000FEF7CCFE00BF00BF46F2B010308095E7FB
:101490005348007800280CDD00BFFFF7C3F900BFF8
:1014A0005046FEF7BBFE00BF00BF46F663503080DB
:1014B00084E700BF4A480078401C49490870084644
:1014C0000078012801D102F085FF00BFFFF7AAF9DB
:1014D00000BF5046FEF7A2FE00BF00BF00BFD5F818
:1014E000248098F837003D49096891F83710884200
:1014F00006DD3A48006890F83710404603F03AFBA2
:101500004B4604222946684602F0D6FB00BF00BFC6
:1015100000BFFEF77FFE824600BFFFF769F900BFFC
:101520002F480078401E2E4908700846007808B9F8
:1015300002F05EFF00BFFFF775F900BF5046FEF7EF
:101540006DFE00BF00BF00BF00F0A8F900BF00BFE4
:10155000FEF760FE824600BFFFF74AF900BF1F4852
:10156000006890F8350030B101280CD002281AD05C
:10157000032821D110E01CB118480068806C20605D
:10158000002030801CE01CB114480068806C206092
:1015900046F2A910308013E00CB10020206047F221
:1015A000D92030800CE01CB10C480068806C2060B1
:1015B00045F6C250308003E046F62E60308000BF12
:1015C00000BF00BFFFF72EF900BF5046FEF726FE12
:1015D00000BF00BF00BFF1E64D5554581801002070
:1015E000A80000202DE9F84F0446894615464FF023
:1015F000000B24B945F6C3502880BDE8F88FB9F137
:10160000000F03D0B9F5004F02D100E000BF03E0A6
:1016100045F625602880F0E700BF9B492068884296
:1016200003D045F6C4502880E7E700BF00BFFEF7AF
:10163000F1FD834600BFFFF7DBF800BF9349606A06
:10164000096888420CD000BFFFF7ECF800BF58468D
:10165000FEF7E4FD00BF00BF45F281702880CCE7B3
:1016600000BF8B480078401C894908700846007804
:10167000012801D102F0AEFE00BFFFF7D3F800BF92
:101680005846FEF7CBFD00BF00BF00BFFFF740F993
:1016900080462834C4F804802078401E207014F856
:1016A000280900283ADD00BF00BF00BFFEF7B2FDE9
:1016B000834600BFFFF79CF800BF75480078401EC6
:1016C0007349087008460078D0B902F091FE71485D
:1016D000008800280BDD00BFFFF7A4F800BF5846C4
:1016E000FEF79CFD00BF00BF02F04AFE11E000BF04
:1016F000FFF798F800BF5846FEF790FD00BF08E0DE
:1017000000BFFFF78FF800BF5846FEF787FD00BF08
:1017100000BF00BF45F2837028806EE721465B481A
:10172000006802F0AFFA04F1080ABAF8080080BBBA
:101730000020606284F8280000BF00BF00BFFEF7F1
:1017400069FD834600BFFFF753F800BF504800789B
:10175000401E4F49087008460078D8B902F048FE8C
:101760004C48008800280BDD00BFFFF75BF800BF86
:101770005846FEF753FD00BF00BF02F001FE12E025
:1017800000BFFFF74FF800BF5846FEF747FD00BF08
:1017900009E00CE000BFFFF745F800BF5846FEF730
:1017A0003DFD00BF00BF00BF0020288025E737486F
:1017B000006890F837003549096891F83810884278
:1017C00028D03248006802F047FA06462F480068E1
:1017D00090F83810B14204DA2C48006890F83800CC
:1017E00000E0304606462948006890F83700B042CD
:1017F00010DA2648006802F095FD2448006880F859
:101800003760304602F012FC2048006802F04AFDC2
:1018100021480670DAF8000087686762012084F8C2
:1018200028002146384602F0E3F900231A463946DB
:101830002046CDF8008002F057FB00BF00BF00BF7C
:10184000FEF7E8FC834600BFFEF7D2FF00BF10485A
:101850000078401E0E4908700846007808B902F06A
:10186000C7FD00BFFEF7DEFF00BF5846FEF7D6FCFF
:1018700000BF00BF00BF09F4004008B900F00EF837
:101880000020288000BFB8E64D55545818010020AC
:10189000A80000206C0000208E00002010B500245D
:1018A00020480078002800DD10BD1F48007800287F
:1018B00000DDF9E700BFFEF7ADFC044600BF02F013
:1018C00095FB1A4908700846007800EB400018495B
:1018D00051F8200017490860084600681649096851
:1018E000884205D100BF2046FEF798FC00BFDBE729
:1018F00010480068D0F89400401C0E490968C1F8EF
:1019000094000E480068401C0C490860FEF70EFD6C
:1019100000BF2046FEF782FC00BFBFF36F8F00BF01
:10192000C2E7000058000020A80000208F0000201F
:10193000DC3400201C01002018010020D40000200D
:1019400070B50446002516480078012803D045F6F6
:101950008960208070BD13480078FA2803DB45F2C7
:1019600009202080F6E700BF00BFFEF753FC0546C4
:1019700000BFFEF73DFF00BF0A480078401C094940
:10198000087002F027FD00BFFEF74CFF00BF28469D
:10199000FEF744FC00BF00BF0020208000BFD9E755
:1019A00060000020A80000202DE9F04105460C460B
:1019B0001646002700BF00BFFEF72CFC074600BFFD
:1019C000FEF716FF00BF012D03D000200E4908705E
:1019D00002E001200C49087014B10C48046006E0D4
:1019E0000B4800680A21B0FBF1F00849086000BF0D
:1019F000FEF718FF00BF3846FEF710FC00BF00BF1F
:101A000000203080BDE8F081B0000020AC00002054
:101A1000F469000870B5044600251F4800780128C5
:101A200003D045F68960208070BD1C48007818B945
:101A300046F664502080F7E700BF00BFFEF7EAFBE0
:101A4000054600BFFEF7D4FE00BF14480078401ED4
:101A5000124908700846007800280CDD00BFFEF728
:101A6000E1FE00BF2846FEF7D9FB00BF00BF46F6E7
:101A700063502080D8E702F0BBFC00BFFEF7D2FE27
:101A800000BF2846FEF7CAFB00BF00BFFFF706FFF6
:101A90000020208000BFC7E760000020A8000020D1
:101AA00010B5044612480078E8B902F09FFA1149CF
:101AB000087008460078104908700E48007800EB5E
:101AC00040000E4951F820000D49086008460068A2
:101AD0000C490860012006490870FEF7EFFB43F649
:101AE0009920208002E045F68A60208010BD000029
:101AF000600000208F0000208E000020DC340020D9
:101B00001C010020180100202DE9F04107464FF08C
:101B1000000800BF00BFFEF77DFB804600BFFEF758
:101B200067FE00BF002047490860474908804749D1
:101B300008804749086047490860474908604749A5
:101B40000860474908604749088100BFFEF76AFE00
:101B500000BF4046FEF762FB00BF00BF00BF00BFF2
:101B6000FEF758FB804600BFFEF742FE00BF3E482E
:101B7000046800BFFEF756FE00BF4046FEF74EFB6E
:101B800000BF00BF26E000BF00BFFEF743FB80465A
:101B900000BFFEF72DFE00BF00207C34E063206410
:101BA00020602063A061A082E0826062A062FEF7F4
:101BB000AFFE20627C3C04F168060020B081D4F8BE
:101BC000C44000BFFEF72EFE00BF4046FEF726FBD6
:101BD00000BF00BF002CD6D100BF00BFFEF71AFB2C
:101BE000804600BFFEF704FE00BF2048056800BF26
:101BF000FEF718FE00BF4046FEF710FB00BF00BF17
:101C000016E000BF00BFFEF705FB804600BFFEF7F1
:101C1000EFFD00BF05F120060020B081AD6900BFD7
:101C2000FEF700FE00BF4046FEF7F8FA00BF00BF17
:101C3000002DE6D103F030FF04F026FA00203880B2
:101C4000BDE8F081740000206E000020BE0000207E
:101C5000D0000020E4000020080100205C000020EB
:101C6000A0000020D0340020D800002094000020E4
:101C7000F8B5044600266946364800F0D3FFBDF8A3
:101C8000000018B1BDF800002080F8BD6A460021B0
:101C9000022001F061F8BDF8000018B1BDF80000A5
:101CA0002080F2E700BF00BFFEF7B4FA064600BF8F
:101CB000FEF79EFD00BF00202749086000BFFEF729
:101CC000B1FD00BF3046FEF7A9FA00BF00BF0025F6
:101CD0002248006822490968884205D91F480068DF
:101CE0001F490968B0FBF1F525B91C4800680A21B5
:101CF000B0FBF1F56A460021284601F02DF869464F
:101D0000144800F023FCBDF8000018B1BDF8000035
:101D10002080BAE700BF00BFFEF77CFA064600BF8E
:101D2000FEF766FD00BF00200E4908600A48006803
:101D30000D49086001200D49087000BFFEF772FDD3
:101D400000BF3046FEF76AFA00BF00BF00202080C7
:101D500000BF9AE7A4390020C0000020F469000801
:101D6000DC690008D0000020C4000020CC00002066
:101D700010B50348006810B101480068804710BDE5
:101D8000480000202DE9FF4F87B004469146DDE969
:101D90001BA5DDF85C80DDE91467002003902CB9F9
:101DA00047F2AD1028800BB0BDE8F08FB9F1000FFD
:101DB00003D147F24F102880F5E71FB946F62F6090
:101DC0002880F0E787480068804503D246F63060F7
:101DD0002880E8E71698404503D346F6316028800E
:101DE000E1E7402E03D346F273202880DBE736B9C3
:101DF0007D48844203D046F273202880D3E73F2EEB
:101E000006D17A48844203D046F273202880CAE77C
:101E1000204602F06FFF002028800AF0010090B1F8
:101E20000AF0020078B105970020069008E0002132
:101E3000059801600598001D05900698401C0690C5
:101E400006984045F3D3169807EB80000490CDE93F
:101E5000008A3A464846049B0A9900F081FD0590A5
:101E6000C4F828900A98E0620898206284F83760E5
:101E700084F83860059820600498A0601998A065DF
:101E8000199818B95A480068E06501E01998E065AA
:101E90001A9860606762C4F84080A4F844A04FF0CC
:101EA000000B08E0002104F1800040F82B100BF13A
:101EB000010000F0FF0BBBF1000FF3D004F168004C
:101EC000189901F0F3FD204600F09CF800BF00BF18
:101ED00000BFFEF79FF9039000BFFEF789FC00BF2B
:101EE00044480078401C434908700846007801289F
:101EF00001D102F06FFA00BFFEF794FC00BF039817
:101F0000FEF78CF900BF00BF00BF94F8370002F065
:101F10008DF8204602F0C6F9204602F0A1FE3648B0
:101F20000088401C3449088034480078012837D0A4
:101F300000BF00BF00BFFEF76DF9039000BFFEF7C2
:101F400057FC00BF2B480078401E2A4908700846FD
:101F50000078D0B902F04CFA2948008800280BDD3F
:101F600000BFFEF75FFC00BF0398FEF757F900BF04
:101F700000BF02F005FA11E000BFFEF753FC00BFFE
:101F80000398FEF74BF900BF08E000BFFEF74AFCDC
:101F900000BF0398FEF742F900BF00BF00BF02E791
:101FA00000BF00BF00BFFEF735F9039000BFFEF78A
:101FB0001FFC00BF0F480078401E0E4908700846FD
:101FC000007808B902F014FA00BFFEF72BFC00BF3E
:101FD0000398FEF723F900BF00BF00BFFFF75EFCC8
:101FE00000BFE0E6F0690008043400203833002028
:101FF000AC000020A8000020DC00002060000020D1
:102000006C00002010B504460348006818B1204653
:1020100001490968884710BD380000202DE9F041CA
:1020200004460E464FF000089048844204D147F21F
:102030004C103080BDE8F0818D48844203D147F2D6
:102040004D103080F6E79CB900BF00BFFEF7E2F804
:10205000804600BFFEF7CCFB00BF8648046800BF87
:10206000FEF7E0FB00BF4046FEF7D8F800BF00BF18
:1020700000BF00BF00BFFEF7CDF8804600BFFEF7EF
:10208000B7FB00BF7C480078401C7B4908700846BD
:102090000078012801D102F09DF900BFFEF7C2FBD4
:1020A00000BF4046FEF7BAF800BF00BF00BF94F87B
:1020B0003600082860D2DFE800F004090E10080A94
:1020C0000F11204602F02EF991E090E000BF20466B
:1020D00003F0B6FC8BE000BF00BF00BF94F83400F3
:1020E00008283BD2DFE800F0040705080E090A06BD
:1020F00000BF00BF33E000BF00BF00BF204601F0BB
:10210000B8FE2CE0206BC068456A15F8377F204682
:1021100001F0AFFE28786978373D884212D095F8F3
:10212000370094F8371088420CD1284601F094FD0E
:10213000074695F83800B84202DA95F8380000E012
:1021400038460746002084F8340095F83700B84236
:1021500003D03946284602F00DFD00E000BF00BF65
:1021600094F83600032803D094F83600072802D1EB
:10217000204603F065FC3AE000BF00BF00BFFEF759
:1021800049F8804600BFFEF733FB00BF3A480078AD
:10219000401E3949087008460078D0B902F028F985
:1021A0003648008800280BDD00BFFEF73BFB00BF70
:1021B0004046FEF733F800BF00BF02F0E1F811E03F
:1021C00000BFFEF72FFB00BF4046FEF727F800BF19
:1021D00008E000BFFEF726FB00BF4046FEF71EF8F2
:1021E00000BF00BF00BF46F62D60308022E700BF71
:1021F000E06B10B1204601F0FFFC04F1680001F033
:10220000FFFB204600F03EF8204602F041FD1C484E
:102210000088401E1A490880204602F06BFDFF200E
:1022200084F8360000BF00BF00BFFDF7F3FF804613
:1022300000BFFEF7DDFA00BF0F480078401E0E49D0
:1022400008700846007808B902F0D2F800BFFEF71F
:10225000E9FA00BF4046FDF7E1FF00BF00BF00BF45
:1022600000203080FFF71AFB00BFE3E63833002080
:102270000434002018010020A80000206C00002079
:10228000DC00002010B504460348006818B1204661
:1022900001490968884710BD3C0000202DE9F05F26
:1022A00080460F4616461C460A9D4FF0000B2EB97D
:1022B00046F2D52028800020BDE8F09F1FB1B7F579
:1022C000004F02D100E000BF04E045F62560288001
:1022D0000020F1E700BF0CB10020206000BF00BF6C
:1022E000FDF798FF834600BFFEF782FA00BF7648ED
:1022F000006800F168092B4622463146484601F045
:10230000A1FB8246288800BBA4B1FEF701FB21682F
:10231000401A6D49096888676B480068C06F6A4950
:102320000968896F884205D267480068806F6649EE
:102330000968C86700BFFEF775FA00BF5846FDF789
:102340006DFF00BF00BF5046B6E707F4004068B11C
:1023500046F2B010288000BFFEF764FA00BF58466E
:10236000FDF75CFF00BF00BF0020A5E757480078DD
:1023700000280DDD00BFFEF755FA00BF5846FDF7F7
:102380004DFF00BF00BF46F663502880002093E752
:1023900000BF4E480078401C4C4908700846007841
:1023A000012801D102F016F800BFFEF73BFA00BF8A
:1023B0005846FDF733FF00BF00BF00BF434602226F
:1023C0000021084601F078FC00BF00BF00BFFDF708
:1023D00021FF834600BFFEF70BFA00BF3B480078A1
:1023E000401E3A4908700846007808B902F000F823
:1023F00000BFFEF717FA00BF5846FDF70FFF00BFFA
:1024000000BF00BFFFF74AFA00BF00BFFDF702FFA1
:10241000834600BFFEF7ECF900BF2B48006890F838
:10242000350020B101282AD0032832D132E02648D5
:102430000068D0F860A024480068B0F864003080DC
:10244000D4B121480068806C2060FEF761FA1E4913
:102450000968896C401A1C49096888671A4800682D
:10246000C06F19490968896F884205D2164800680B
:10247000806F15490968C8670020288017E04FF071
:10248000000A0020308004B1206046F2A9102880A4
:102490000DE000BF4FF0000A002030801CB10A4858
:1024A0000068806C206047F2D920288000BF00BF00
:1024B00000BFFEF7B7F900BF5846FDF7AFFE00BFFB
:1024C00000BF5046F8E6000018010020A8000020D8
:1024D0002DE9FF470746884691461D460C9E4DB1A3
:1024E000102D08D0B5F5004F06D0A5F500401038E6
:1024F00020B902E000BF00BF00BF04E045F6256040
:102500003080BDE8FF8700BFFEF702FA04460D48A1
:10251000007800280BDD00204B4642463946CDE9C5
:102520000246CDE90005084800F0C2FFE9E72B4666
:102530004A4641463846CDE9004602F043FC00BF1A
:10254000DFE7000058000020544D53477FB5044694
:102550000D46002600BF00BFFDF75CFE064600BF2B
:10256000FEF746F900BF1CB11748006884420CD141
:1025700000BFFEF757F900BF3046FDF74FFE00BF22
:1025800000BF47F2571028807FBD00BFFEF74AF911
:1025900000BF3046FDF742FE00BF00BF0B48007889
:1025A00000280BDD002000900190034602462146E2
:1025B000CDE90205064800F07BFFE5E72946204605
:1025C00002F036FD00BFDFE71801002058000020B0
:1025D0005452455310B504460348006818B12046CC
:1025E00001490968884710BD400000202DE9F047E7
:1025F00080460E4614461D464FF000091EB1B6F542
:10260000004F02D100E000BF05E045F625602880BC
:102610000020BDE8F08700BF0CB10020206000BFA3
:1026200000BFFDF7F7FD814600BFFEF7E1F800BFF0
:102630007A480068C06CB8B378480068C06C401E27
:1026400076490968C86475480068C76C1CB173484E
:102650000068806C2060FEF75BF970490968896C3E
:10266000401A6E490968C1F8A8006C480068D0F8A3
:10267000AC006A490968D1F8A810884207D26748B7
:102680000068D0F8A80065490968C1F8AC0000BF2F
:10269000FEF7C8F800BF4846FDF7C0FD00BF00BF09
:1026A000002028803846B4E7FFE706F4004068B110
:1026B00000BFFEF7B7F800BF4846FDF7AFFD00BF0B
:1026C00000BF46F2B01028800020A2E754480078EE
:1026D00000280DDD00BFFEF7A5F800BF4846FDF756
:1026E0009DFD00BF00BF46F663502880002090E7A4
:1026F00000BF4B480078401C4949087008460078E4
:10270000012801D101F066FE00BFFEF78BF800BF83
:102710004846FDF783FD00BF00BF00BF43460722C8
:102720000021084601F0C8FA00BF00BF00BFFDF756
:1027300071FD814600BFFEF75BF800BF38480078A6
:10274000401E374908700846007808B901F050FE6D
:1027500000BFFEF767F800BF4846FDF75FFD00BF0A
:1027600000BF00BFFFF79AF800BF00BFFDF752FDA2
:10277000814600BFFEF73CF800BF2848006890F88B
:10278000350020B1012826D0032834D12CE0FCB13B
:1027900022480068806C2060FEF7BAF81F4909687B
:1027A000896C401A1D490968C1F8A8001B480068D7
:1027B000D0F8AC0019490968D1F8A810884207D2AE
:1027C00016480068D0F8A80014490968C1F8AC00A0
:1027D0000020288013E01CB110480068806C206045
:1027E00046F2A91028800AE00CB10020206047F2D0
:1027F000D920288003E046F62E60288000BF00BF65
:1028000006480068C76C00BFFEF70CF800BF4846DA
:10281000FDF704FD00BF00BF3846FAE618010020AE
:10282000A80000202DE9FF4106460F4614461FB1BF
:10283000B7F5004F02D100E000BF06E045F6256085
:102840002080002004B0BDE8F08100BFFEF760F8F2
:1028500005460D48007800280CDD00200090034656
:1028600002463146CDE902540190084800F020FEAE
:102870000020E7E723462A463946304602F0A2FC0C
:1028800080464046DEE70000580000205453494788
:102890002DE9F04704460E4617461D464FF0000A44
:1028A00026B946F2D5202880BDE8F0871FB946F248
:1028B000D5202880F8E700BF00BFFDF7ABFC8246BB
:1028C00000BFFDF795FF00BF0CB9244804682068DD
:1028D00078B900BFFDF7A6FF00BF5046FDF79EFC8C
:1028E00000BF00BF00203060386047F252102880DF
:1028F000DAE794F8440000F0010078B900BFFDF772
:1029000091FF00BF5046FDF789FC00BF00BF0020CB
:102910003060386047F254102880C5E700BFFDF7EB
:1029200081FF00BF5046FDF779FC00BF00BF4FF0AC
:102930000008D4F8249003E009F1040908F1010823
:10294000D9F800000028F7D0C6F80080206CA0EB72
:10295000080038600020288000BFA5E7180100208B
:10296000F0B50446DDE9055602EB850020F00700CE
:102970004FF0807C071F3846C7F800C0071F384655
:102980003C60DFF834C2071F3846C7F800C04FF07C
:10299000123C071F3846C7F800C04FF0033C071F22
:1029A0003846C7F800C04FF0023C071F3846C7F84A
:1029B00000C0071F38463B60071F384639604FF09C
:1029C000113C071F3846C7F800C04FF0103C071FE6
:1029D0003846C7F800C04FF0093C071F3846C7F813
:1029E00000C04FF0083C071F3846C7F800C04FF042
:1029F000073C071F3846C7F800C04FF0063C071FCA
:102A00003846C7F800C04FF0053C071F3846C7F8E6
:102A100000C04FF0043C071F3846C7F800C006F05E
:102A20000407002F7ED04FF0007C071F3846C7F800
:102A300000C0DFF888C1071F3846C7F800C0DFF8BC
:102A400080C1071F3846C7F800C0DFF878C1071FEC
:102A50003846C7F800C0DFF870C1071F3846C7F80E
:102A600000C0DFF868C1071F3846C7F800C0DFF8AC
:102A700060C1071F3846C7F800C0DFF858C1071FFC
:102A80003846C7F800C0DFF850C1071F3846C7F8FE
:102A900000C0DFF848C1071F3846C7F800C0DFF89C
:102AA00040C1071F3846C7F800C0DFF838C1071F0C
:102AB0003846C7F800C0DFF830C1071F3846C7F8EE
:102AC00000C0DFF828C1071F3846C7F800C0DFF88C
:102AD00020C1071F3846C7F800C0DFF818C1071F1C
:102AE0003846C7F800C04FF0834C071F3846C7F878
:102AF00000C0DFF804C1071F3846C7F800C0DFF880
:102B0000FCC0071F3846C7F800C0DFF8F4C0071F35
:102B10003846C7F800C0DFF8ECC0071F3846C7F8D2
:102B200000C000E047E0DFF8E0C0071F3846C7F804
:102B300000C0DFF8D8C0071F3846C7F800C0DFF86C
:102B4000D0C0071F3846C7F800C04FF0824C071F9F
:102B50003846C7F800C0DFF8BCC0071F3846C7F8C2
:102B600000C0DFF8B4C0071F3846C7F800C0DFF860
:102B7000ACC0071F3846C7F800C04FF0814C071F94
:102B80003846C7F800C0DFF898C0071F3846C7F8B6
:102B900000C04FF0804C071F3846C7F800C04FF008
:102BA0007E5C071F3846C7F800C04FF0000C071FB7
:102BB0003846C7F800C0F0BDAD5100080000F8412C
:102BC0000000F0410000E8410000E0410000D84171
:102BD0000000D0410000C8410000C0410000B841E1
:102BE0000000B0410000A8410000A0410000984151
:102BF00000009041000088410000704100006041E9
:102C000000005041000040410000304100002041E0
:102C1000000010410000E0400000C0400000A04063
:102C2000000040407FB505460C461248854203D15E
:102C300047F25B1020807FBD0F48854203D147F2E9
:102C40005C102080F7E70D48007800280BDD00209D
:102C500000900190034602462946CDE90204084847
:102C600000F026FCE7E72146284602F07FFD00BF82
:102C7000E1E7000038330020043400205800002031
:102C80005453555370B53048006890F8440000F034
:102C9000040020B12C4909680868FDF7F9FA2B48AF
:102CA000006890F8440000F0040020B1274909684A
:102CB0000868FDF7FAFA2648006810B12448006851
:102CC0008047FDF725FE04461F4800681F49096834
:102CD000884215D01C480068D0F89C00201A1A4978
:102CE0000968C1F8980018480068D0F8A000164993
:102CF0000968D1F89810084413490968C1F8A00080
:102D000012480068C0F89C40FDF746FD05460E4895
:102D10000068D0F8B800A84203D20B480068C0F899
:102D2000B85009480068D0F8BC000A4909688842D0
:102D300005D20848006804490968C1F8BC000020B1
:102D40000449086070BD0000180100201C0100202B
:102D50004C000020A40000202DE9F04105460E465D
:102D60001446002746480078002804DD46F66350E4
:102D70002080BDE8F08136B1022E05D0042E0AD0A5
:102D8000082E09D101E000BF00BF1DB947F27E2027
:102D90002080EEE704E003E045F625602080E8E7C8
:102DA00000BF00BF00BF00BFFDF734FA074600BFF9
:102DB000FDF71EFD00BF32480078401C3049087006
:102DC00008460078012801D101F004FB00BFFDF79F
:102DD00029FD00BF3846FDF721FA00BF00BF00BF44
:102DE0002346324629462748006802F0CBFD20885A
:102DF000F0B100BF00BF00BFFDF70CFA074600BFEF
:102E0000FDF7F6FC00BF1E480078401E1C49087004
:102E10000846007808B901F0EBFA00BFFDF702FDA3
:102E200000BF3846FDF7FAF900BF00BF00BFA0E7BA
:102E30001448006801F076FA00BF00BF00BFFDF73C
:102E4000E9F9074600BFFDF7D3FC00BF0C48007846
:102E5000401E0B4908700846007808B901F0C8FA0E
:102E600000BFFDF7DFFC00BF3846FDF7D7F900BF14
:102E700000BF00BFFEF712FD0020208000BF78E7F2
:102E8000A80000201801002010B586B000F01EF840
:102E9000FDF73EFD044605A800210091CDE901148F
:102EA00003900748007800EB4000064A02EB8001DF
:102EB00000231A46044800F0FBFA06B010BD0000DB
:102EC0008E000020DC3400205449434B10B50348E9
:102ED000006810B101480068804710BD5000002014
:102EE00010B5002400BF00BFFDF794F9044600BFF1
:102EF000FDF77EFC00BF09480078401C07490870B8
:102F000000BFFDF78FFC00BF2046FDF787F900BF2B
:102F100000BFFFF7B9FFFEF755F810BD58000020BD
:102F200001464A1E4FF0E0235A61084A106820F01B
:102F30007F4000BF10601A46126942F005021A6114
:102F40001A46126942F002021A61704720ED00E051
:102F5000244A2549254A264A2649274A2748284AF5
:102F6000284A294A294A2A482A482B482B4A2C48C9
:102F70002C4A2D482D4A2E482E482F482F48304A9B
:102F8000304A314A3148324A324A33483348344869
:102F90003448354835483648364A374A374A384A39
:102FA0003848394839483A4A3A4A3B4A3B483C480B
:102FB0003C483D493D483E4A3E4A3F4A3F4A404AD6
:102FC000404A414A4148424A424A43484348444AA7
:102FD000444A4548454A464A4648474800BF00BF1C
:102FE00000BF7047286A0008906B0008296A000833
:102FF0002A6A00082C6A0008306A0008346A00084F
:10300000316A00085C6A00085D6A00085E6A0008B0
:10301000606A0008626A0008646A0008666A00085C
:10302000686A0008886A00088A6A00088C6A0008D2
:103030008E6A0008906A0008926A0008946A000884
:10304000C46A0008C56A0008C66A0008C86A0008A1
:10305000CA6A0008CB6A0008CC6A0008CE6A000879
:10306000D06A0008D26A0008D46A0008D66A00084C
:10307000D86A0008086B0008096B00080A6B000892
:103080000B6B00080C6B00080E6B0008106B00083F
:10309000386B0008396B00083A6B00083B6B00087E
:1030A0003C6B00083E6B0008406B0008446B000856
:1030B000456B0008466B0008476B0008486B00082A
:1030C000496B00084A6B00084B6B00084C6B00080A
:1030D0004E6B00084F6B0008506B0008526B0008E5
:1030E000546B0008556B0008586B0008886B00088B
:1030F000896B00088A6B00088C6B00080021034A6A
:103100001160034A118001807047000078000020A0
:103110007C0000202DE9F04F85B004468946924698
:103120009B46DDF838800020009000BF00BFFDF70F
:1031300071F8009000BFFDF75BFB00BFBAF1000F14
:103140000AD0BAF1010F0DD0BAF5004F05D06FF4D7
:103150000040504460B906E000BF206A40EA090020
:10316000206216E000BF206A20EA0900206210E019
:1031700000BFFDF757FB00BF0098FDF74FF800BFF9
:1031800000BF45F62560A8F80000002005B0BDE8A6
:10319000F08F00BFC4F824B004F10800019001983A
:1031A000008968B900BFFDF73DFB00BF0098FDF73F
:1031B00035F800BF00BF0020A8F80000206AE5E74E
:1031C00000BF71480078401C6F49087008460078BD
:1031D000012801D101F0FEF800BFFDF723FB00BF7D
:1031E0000098FDF71BF800BF00BF00BF01980768FB
:1031F000BD6889E07868029095F88C0000F00F00B7
:1032000003900398012821D002282ED0042802D050
:10321000082836D10EE0206AD5F8841000EA0106AD
:10322000D5F88400B04204D15A463146284600F011
:10323000AFF863E0206AD5F8841000EA010626B1F1
:103240005A463146284600F0A3F857E0D5F88400E6
:10325000216A20EA0106D5F88400B04204D15A461A
:103260003146284600F094F848E0D5F88400216AF9
:1032700020EA010626B15A463146284600F088F871
:103280003CE000BF00BF00BFFCF7C4FF009000BFE0
:10329000FDF7AEFA00BF3C480078401E3A4908707E
:1032A00008460078D0B901F0A3F838480088002813
:1032B0000BDD00BFFDF7B6FA00BF0098FCF7AEFFCC
:1032C00000BF00BF01F05CF811E000BFFDF7AAFAF3
:1032D00000BF0098FCF7A2FF00BF08E000BFFDF7A9
:1032E000A1FA00BF0098FCF799FF00BF00BF00BF24
:1032F00043F6FF20A8F80000002047E700BF029F28
:103300000FB1BD6800E00025002D7FF473AF00BF52
:1033100000BF00BFFCF77EFF009000BFFDF768FA1A
:1033200000BF19480078401E174908700846007809
:1033300008B901F05DF800BFFDF774FA00BF00980E
:10334000FCF76CFF00BF00BF00BF0AF4004008B9E3
:10335000FEF7A4FA00BF00BFFCF75CFF009000BFBF
:10336000FDF746FA00BF206A049000BFFDF75AFA45
:1033700000BF0098FCF752FF00BF00BF0020A8F874
:103380000000049802E70000A80000206C00002064
:1033900070B504460E4615463434666500206070EC
:1033A00020706561A078343C08281DD2DFE800F069
:1033B000040508090706171800BF00BF00BF14E086
:1033C00000BF94F83600032802D1204602F038FBF3
:1033D000204600F031FF002084F8360005E000BFF1
:1033E000042084F8360000E000BF00BF204600F053
:1033F00040FD70BD00241DE000BF00BFFCF70AFFC8
:10340000044600BFFDF7F4F900BF0B480068401CFC
:103410000949086009480068401C0849086000BF65
:10342000FDF700FA00BF2046FCF7F8FE00BF00BF22
:10343000FDF7CEFCE0E7000054000020C0000020B3
:1034400010B58AB0044600200E4908600B20002108
:103450000591CDE90704069108460B4909680B4A16
:1034600012680B4B1B68CDE90132CDE903103F20F8
:103470000023084A08A100900C48FEF783FC0AB01C
:1034800010BD0000540000209C69000898690008E5
:1034900094690008F533000875432F4F532D4949AF
:1034A000492049646C65205461736B0038330020F7
:1034B0002DE9F84F04460D4616461F46DDE90BABD5
:1034C000DDF82890DDF834800020009000BF00BFB8
:1034D000FCF7A0FE009000BFFDF78AF900BF2C4862
:1034E00000882C49098888423EDA29480088401C17
:1034F00027490880284800880988884203DA244838
:103500000088254908802548006804602348006831
:10351000856022480068C6602048006807821F480E
:103520000068C0F814901D480068A0F818A01B4857
:103530000068C0F81CB01948006840681749086066
:10354000012017490881174808604860002000F0F2
:103550006DFD1548007818B11348007813490870BC
:103560000020A8F8000008E011480088401C10491D
:10357000088044F25360A8F8000000BFFDF752F93C
:1035800000BF0098FCF74AFE00BF00BFBDE8F88FFF
:103590006C000020A86900086E0000206400002074
:1035A000DC340020043400208E0000209000002035
:1035B000700000203EB5594800680068584A811ADA
:1035C000904279D00FDC5749084400283ED0564934
:1035D0000844A8B155490844002860D0544908441B
:1035E00000286AD13FE053480844002850D052498F
:1035F0000844002862D0514908440028F1D110E065
:1036000002A8464D00902D68EB69444D2D682A8B29
:10361000424D2D686969414D2D68A868FFF77AFD14
:103620007AE002A93D480068C0693C4DCDE900013F
:103630002D682B8B394D2D682A8A384D2D68E96805
:10364000364D2D68A86800F021FD65E0334B1B68FE
:10365000DA69324B1B68198B304B1B68986802ABD8
:1036600000F066FF58E002A92C480068C0692B4DA5
:10367000CDE900012D682B8B284D2D682A8A274D16
:103680002D68E968254D2D68A86801F09BFB43E093
:1036900022490968886802A901F0CAFC3CE01F4B76
:1036A0001B68DA691D4B1B68198B1C4B1B689868DB
:1036B00002AB01F087FD2FE007E02CE01749096815
:1036C000886802A902F052F826E01D49097801EB4A
:1036D00041011C4A02EB810000F0A8FE0F4800687F
:1036E00002AB0021C269184801F06CFD1748006860
:1036F000401E164908600846006858B9144800681A
:103700000860FDF705F9044602AB22460021114886
:1037100001F058FD00E000BF00BF3EBD6800002082
:103720005449434BADBAB2BE0DF90BFAF2F8F7FFAC
:103730000006F6FF00F7FDF700FFEFFF03FE0FFEA8
:1037400090000020DC340020A83800201401002064
:1037500010010020A4390020002756E0002652E086
:1037600000BF00BFFCF756FD074600BFFDF740F85D
:1037700000BF2648008898B90020254908810860C4
:10378000486000F065FC00BFFDF74CF800BF38460C
:10379000FCF744FD00BF00BFFEF780F8012632E0D1
:1037A00000BFFDF73FF800BF3846FCF737FD00BF0C
:1037B00000BFFDF7ADF80546FFF7FCFEFDF7A8F8E2
:1037C000441B14480068A04201D21248046000BFA4
:1037D00000BFFCF71FFD074600BFFDF709F800BF5B
:1037E0000D48006840680C49086008480088401E81
:1037F0000649088000BFFDF715F800BF3846FCF702
:103800000DFD00BF00BF002EAAD0A7E76C0000206E
:10381000DC3400207400002068000020F0B589B07E
:1038200005460020314908803148006820B944F23B
:103830005260288009B0F0BD2E480088022803DAC3
:1038400044F254602880F5E700202B49086028489E
:1038500004682646203600270CE028482060002017
:10386000A060E060208260612083666020342036A2
:10387000781C87B21F4800888742EEDB203C1C483A
:10388000066866601E4806601E48066000201E49E5
:1038900008801E4908801E48006818B944F2556027
:1038A0002880C7E71B4800681B490968884203D283
:1038B00044F256602880BDE7032000210591CDE940
:1038C0000705069113480068144A1268104B1B68DC
:1038D000CDE90301CDE9013200910B46104A11A157
:1038E0001748FEF74FFA00BFA4E700007000002061
:1038F000A4690008A8690008740000204E4F4E45D6
:1039000064000020680000206C0000206E00002091
:10391000B0690008B8690008F0690008B4690008D7
:103920005937000875432F4F532D494949204953B2
:1039300052205175657565205461736B000000005D
:1039400004340020002181610749096811B9002170
:10395000C16105E004490968C161034909688861DA
:103960000149086070470000800000200021034AE0
:103970001160034A11800180704700008000002020
:103980008400002070B501461A4D2D681DB945F21E
:103990001E750D8070BD184D2D881DB945F21D7521
:1039A0000D80F7E7134D28682A681032124D2D88D4
:1039B0006D1EACB2002308E0026000254560058161
:1039C000C560103010325D1CABB2A342F4DB0025A1
:1039D000056045600581C560064D2D68074E356060
:1039E000054D2D88B5800025F58035810D8000BFFF
:1039F000D0E70000D4690008CC690008D03400206A
:103A000010B5014648894B89002B17DD0A680C4B1D
:103A10001B6813600A4C4B6823602346DB884C8983
:103A20001B1B074CE38023469B884C892344044C92
:103A3000A38000234B818B810B604B6010BD000085
:103A4000D0340020F0B504460D46608940B900200E
:103A5000288002B1106046F2925018800020F0BD1C
:103A600061684E68088928800AB1C86810600868D3
:103A70006060606818B900202060608102E06089A1
:103A8000401E60810848006808600748016080881F
:103A9000401C054FB8803846C088401EF880002082
:103AA00018803046DBE70000D0340020018100227E
:103AB0004281828102604260704700002DE9F0413E
:103AC0000D46DDE90674B0F80AC0B0F80880C445B8
:103AD00005DB46F2935CA4F800C0BDE8F081DFF896
:103AE000DCC0BCF804C0BCF1000F04D145F21D7C61
:103AF000A4F800C0F1E7DFF8C4C0DCF80010DFF87C
:103B0000BC80D1F800C0C8F800C0C446BCF804C0EE
:103B1000ACF1010CA8F804C0C446BCF806C00CF116
:103B2000010CA8F806C0C446BCF808C0B8F8068066
:103B3000C44507DADFF884C0BCF806C0DFF87C8033
:103B4000A8F808C0B0F80AC0BCF1000F0AD10160A3
:103B500041604FF0010CA0F80AC04FF0000CC1F812
:103B600000C017E003F0100CBCF1000F07D106688D
:103B7000316001604FF0000CC1F800C004E0D0F8E3
:103B800004C0C1F800C04160B0F80AC00CF1010CDB
:103B9000A0F80AC0B0F80CC0B0F80A80C44503DA37
:103BA000B0F80AC0A0F80CC04D600A81CF604FF099
:103BB000000CA4F800C000BF8FE70000D034002044
:103BC00009A1C161002141610849096811B90021B9
:103BD000816105E005490968816104490968486116
:103BE00002490860704700002000000088000020A3
:103BF000C26B0A62C16370472DE9F8430546EC6B5E
:103C000026E0D4F82090FCF783FE0646E6622146C3
:103C1000284600F037F804F10808B8F8080020B981
:103C2000002084F82800606211E0D8F8000087685E
:103C30006562012084F8280021463846FFF7D8FF46
:103C400000231A4639462046009600F04DF94C46AE
:103C5000002CD6D1BDE8F88330B504463F2004F1EE
:103C60003C010BE00D68AB682BB19D6895F83720DF
:103C7000824200DA10460D6805F120010D68002D22
:103C8000F0D130BD024602F13C0002E0036803F1CE
:103C9000200003688B42F9D103681B6A03607047F8
:103CA0000021034A1160034A11800180704700001F
:103CB000880000208C0000202DE9F04105460C46CC
:103CC00016461F461548006880F8346000201349E6
:103CD000096881F8350039461048006800F034FF63
:103CE0006CB104F10808EC60012229460B48006819
:103CF00000F016F82946404600F088F807E000205A
:103D000006490968A1F846000449096808630348A0
:103D10000168204600F018F8BDE8F0811801002085
:103D200010B5A0F84620016300230AE000244C608F
:103D30000C600C614C610C83CC61886020315C1C90
:103D4000A3B29342F2DB10BD30B548B14568C1F86B
:103D5000C85000F10804226893681D6AC56113E029
:103D600091F83450022D02D0072D08D103E007A5A9
:103D7000C1F8C85007E007A5C1F8C85003E008A57E
:103D8000C1F8C85000BF00BF30BD00005461736B64
:103D9000205100005461736B2053656D00000000DA
:103DA0002000000030B507A5C1F8C85000F1080494
:103DB00022681AB193681D6AC56101E001A5C56159
:103DC00030BD0000200000002DE9F0410446256BC5
:103DD000B4F8467011E0D5F80C8008F10806308977
:103DE000012807D92946304600F05DF829463046BB
:103DF00000F00CF82035781E87B2002FEBD1BDE81B
:103E0000F08100210160416001817047F0B58E684A
:103E100096F8375007893FB90127078100274F607F
:103E20000F600160416023E007897F1C0781026801
:103E300006E0946894F83770AF4200DD02E0526803
:103E4000002AF6D100BF32B900274F6043680B60EB
:103E5000596041600CE017682FB9116000270F60AE
:103E60004A60016004E013680B604A6059601160A9
:103E7000F0BD2DE9F0410446256BB4F846600AE038
:103E8000D5F80C8008F108072946384600F00BF8F1
:103E90002035701E86B2002EF2DC0020A4F8460009
:103EA0002063BDE8F08110B50489012C03D1002402
:103EB0000460446011E00C6824B94A68002414606E
:103EC00002600AE04C6824B90B6800245C6043601F
:103ED00003E00B684A685A6013600489641E048119
:103EE00000244C600C6010BD2DE9F84306460C46DA
:103EF00017469846089D94F8360008285BD2DFE8FC
:103F000000F0040508090607323300BF00BF00BFF8
:103F100052E000BF94F83400032807D143463A46E4
:103F200021463046009500F04AF803E02766A4F8E1
:103F30006480A56436B12046FFF79BFF21463046DA
:103F4000FFF730FF94F83600032802D1204601F035
:103F500077FD204600F070F900203434A0706070C6
:103F600004F8340928E000BF94F83400032807D18E
:103F700043463A4621463046009500F020F803E0DB
:103F80002766A4F86480A56436B12046FFF771FF68
:103F900021463046FFF706FF94F83600072802D185
:103FA000204601F04DFD04203434A07000206070E4
:103FB00004F8340900E000BF00BFBDE8F883F0B5A5
:103FC0000446059E086BB1F846500AE0C768A74250
:103FD00004D1046142610383C66104E020306F1E96
:103FE000BDB2002DF2DC00BFF0BD000070B50025B1
:103FF000074C03E005F12000C5B2241D206800280D
:10400000F8D02068FCF711F92844C5B2284670BDE5
:1040100030000020002004E00021034A42F8201074
:10402000401C0228F8D370473000002030B5420908
:1040300000F01F030121C3F11F04A140034C54F8F9
:1040400022400C43014D45F8224030BD3000002095
:1040500030B5420900F01F030121C3F11F04A14044
:10406000034C54F822408C43014D45F8224030BDAA
:10407000300000200021034A1160034A11800180B2
:104080007047000094000020980000202DE9F04FB8
:1040900085B007468A4693461C460020029000BF22
:1040A00000BF00BFFCF7B6F8029000BFFCF7A0FB12
:1040B00000BF56480078401C5449087008460078F4
:1040C000012801D100F086F900BFFCF7ABFB00BF6F
:1040D0000298FCF7A3F800BF00BF00BF07F1080675
:1040E000308900284CD104F0100010B94FF00008BE
:1040F00001E04FF01008DDE90E0143465A46CDE9D4
:104100000001514607F12000FFF7D8FC00BF00BFB7
:1041100000BFFCF77FF8029000BFFCF769FB00BF0F
:104120003A480078401E3949087008460078D0B9EE
:1041300000F05EF93648008800280BDD00BFFCF770
:1041400071FB00BF0298FCF769F800BF00BF00F0E8
:1041500017F911E000BFFCF765FB00BF0298FCF700
:104160005DF800BF08E000BFFCF75CFB00BF0298F1
:10417000FCF754F800BF00BF00BF05B0BDE8F08FEA
:1041800004F4007008B1358900E00125D6F80090EC
:1041900011E0D9F808000390D9F8040004900E98B3
:1041A0005B465246009038460399FFF79DFEDDF8C6
:1041B0001090681E85B2002DEBD100BF00BF00BF7C
:1041C000FCF728F8029000BFFCF712FB00BF0F4875
:1041D0000078401E0D4908700846007808B900F0C4
:1041E00007F900BFFCF71EFB00BF0298FCF716F8AA
:1041F00000BF00BF00BF04F4004008B9FDF74EFB4C
:1042000000210F98018000BFB7E70000A800002040
:104210006C00002000210AE001EB4102054B03EB9A
:10422000820000220281026042604A1CD1B2402911
:10423000F2D37047DC34002010B5044694F8370000
:10424000FFF7F4FE94F8370005490978884203D156
:10425000204600F027F802E0204600F003F810BDE9
:104260008E00002010B590F8373003EB43030C4C60
:1042700004EB83010B893BB901230B810023C3604D
:1042800003610860486009E00B895B1C0B810B68C7
:10429000C360002303610A681061086010BD00005C
:1042A000DC34002010B590F8373003EB43030B4C9F
:1042B00004EB83010B893BB901230B810023C3600D
:1042C00003610860486008E00B895B1C0B810023D8
:1042D000C3604A680261D060486010BDDC340020D1
:1042E00010B501460C8924B1012C03D0022C0CD14D
:1042F00001E000BF14E008684A6802610024C4605D
:104300001461D0600A6048600AE008684A68C368BF
:1043100000241C61C4600261D0600B60486000BF73
:1043200000BF10BD2DE9F041054695F8370000EBC0
:104330004000124901EB80042F69EE6887B946B945
:10434000002020812060606095F83700FFF780FE34
:104350000EE02089401E208100203061266007E0A9
:104360002089401E2081FE600EB9676000E0376141
:1043700000202861E860BDE8F0810000DC34002006
:1043800010B5002400BFFBF745FF044600BF002026
:104390000C4908700C480D49086008460068D0F8C0
:1043A0009400401C0968C1F8940009480068401C4A
:1043B00007490860FBF7BAFF00BF2046FBF72EFF56
:1043C00000BF10BD8F000020043400201C0100201D
:1043D000D400002010B504480078012803D1FCF770
:1043E00097FA0249086010BDA80000209C00002038
:1043F00010B50A48007880B9FCF78AFA08490968BC
:10440000441A08480068A04201D2064804600648E1
:104410000068A04201D20448046010BDA80000203A
:104420009C000020A0000020A400002070B50546DC
:10443000002635480078012800D070BD00BF00BFBD
:10444000FBF7E8FE064600BFFCF7D2F900BF2C6878
:104450004CB900BFFCF7E6F900BF3046FBF7DEFEC3
:1044600000BF00BFE9E72948844209D100BFFCF73B
:10447000D9F900BF3046FBF7D1FE00BF00BFDCE733
:10448000E06D10B1E06D401EE065E06D48B100BF29
:10449000FCF7C8F900BF3046FBF7C0FE00BF00BF05
:1044A000CBE72889022809DA00BFFCF7BBF900BF77
:1044B0003046FBF7B3FE00BF00BFBEE714480078EC
:1044C000002809DD00BFFCF7ADF900BF3046FBF75F
:1044D000A5FE00BF00BFB0E72846FFF701FF2C682C
:1044E000A06D18B90B480068E06501E0A06DE065BB
:1044F00000BFFCF797F900BF3046FBF78FFE00BF07
:1045000000BF00BF99E70000B00000203833002052
:10451000A8000020AC0000200021034A1160034ADB
:104520001180018070470000B4000020B800002016
:104530002DE9FF5F0446884691461D460020019004
:1045400000BF00BFFBF766FE019000BFFCF750F90B
:1045500000BF04F108073889002857D1042001283A
:1045600004D0022816D004283AD127E0206AFF2878
:104570000FD100BFFCF756F900BF0198FBF74EFEC4
:1045800000BF00BF46F6C5502880002004B0BDE83B
:10459000F09F26E04FF6FF71206A88420DD100BFE0
:1045A000FCF740F900BF0198FBF738FE00BF00BFE1
:1045B00046F6C55028800020E8E712E0206A401C3B
:1045C00068B900BFFCF72EF900BF0198FBF726FE83
:1045D00000BF00BF46F6C55028800020D6E700E0A7
:1045E00000BF00BF206A401C2062D4F820A0C4F89D
:1045F000249000BFFCF716F900BF0198FBF70EFEF0
:1046000000BF00BF002028805046BFE700BF2D48F4
:104610000078401C2B49087008460078012801D119
:10462000FFF7D8FE00BFFCF7FDF800BF0198FBF7CD
:10463000F5FD00BF00BF00BF08F4007008B13E895F
:1046400000E00126D7F800B011E0DBF80800029086
:10465000DBF80400039000231A46CDF800902046B2
:104660000299FFF741FCDDF80CB0701E86B2002EF7
:10467000EBD1D4F820A000BF00BF00BFFBF7CAFDFC
:10468000019000BFFCF7B4F800BF0E480078401E50
:104690000C4908700846007808B9FFF7A9FE00BF6A
:1046A000FCF7C0F800BF0198FBF7B8FD00BF00BFE2
:1046B00000BF08F4004008B9FDF7F0F8002028809A
:1046C000504663E7A800002086B00020009006E076
:1046D000D8490968480001AA0021FEF73DFBD648E9
:1046E00000780128F4D101A8FDF70EFA0027D3487D
:1046F0000068D0490968884205D9D0480068CD498A
:104700000968B0FBF1F727B9CC4800680A21B0FB73
:10471000F1F78EE1FCF7FCF88246FCF753F8C84944
:10472000086000BF00BFFBF775FD009000BFFCF7FD
:104730005FF800BFC3480068C34908600020C14952
:10474000086000BFFCF76EF800BF0098FBF766FD3D
:1047500000BF00BFBD480068BB490968884248D90E
:10476000BA480068BA49884205D242F210700390F4
:104770000120029023E0B5480068B649884205D27E
:104780004FF47A7003900A20029018E0AF48006856
:10479000B149884203D26420039002900FE0AB48F5
:1047A0000068AE49884205D20A2003904FF47A701F
:1047B000029004E00120039042F210700290A3489E
:1047C00001680298B1FBF0F99F49039809684843D2
:1047D000B0FBF9F042F21071081AA1490880A14813
:1047E00000880988884208DA9D4800889D49088029
:1047F00003E042F210709A490880FDF7B9FA0025EB
:1048000000BF00BFFBF706FD009000BFFBF7F0FF05
:1048100000BF9548046800BFFCF704F800BF00988B
:10482000FBF7FCFC00BF00BF72E000BF00BF00BF91
:10483000FBF7F0FC009000BFFBF7DAFF00BF8B48EE
:104840000078401C8949087008460078012801D189
:10485000FFF7C0FD00BFFBF7E5FF00BF0098FBF7C7
:10486000DDFC00BF00BF00BF54F8A00F6060002057
:1048700044F8A00900BF00BF00BFFBF7CBFC0090CD
:1048800000BFFBF7B5FF00BF78480078401E7749AE
:10489000087008460078D0B9FFF7AAFD7448008870
:1048A00000280BDD00BFFBF7BDFF00BF0098FBF742
:1048B000B5FC00BF00BFFFF763FD11E000BFFBF7D1
:1048C000B1FF00BF0098FBF7A9FC00BF08E000BFE4
:1048D000FBF7A8FF00BF0098FBF7A0FC00BF00BFDC
:1048E00000BFD4F8A400054400BF00BFFBF792FC52
:1048F000009000BFFBF77CFF00BFD4F8C44000BFAE
:10490000FBF790FF00BF0098FBF788FC00BF00BFDB
:10491000002C8AD145B34E48854205D242F2107030
:1049200005904FF0010B1BE04A48854205D24FF439
:104930007A7005904FF00A0B12E04748854203D287
:104940006420059083460BE04448854204D20A2047
:1049500005904FF47A7B03E00120059042F2107B32
:10496000B5FBFBF0049003E00020059001200490CB
:1049700000BF00BFFBF74EFC009000BFFBF738FF05
:1049800000BF3948046800BFFBF74CFF00BF009828
:10499000FBF744FC00BF00BF2FE0D4F8A40005994A
:1049A00048430499B0FBF1F086B242F2107086429F
:1049B00000D90646A4F89060B4F89200B04201DA3B
:1049C000A4F8926001AB04F1B002111D2046FDF77E
:1049D0005FFF00BF00BFFBF71DFC009000BFFBF7AF
:1049E00007FF00BFD4F8C44000BFFBF71BFF00BFA8
:1049F0000098FBF713FC00BF00BF002CCDD11D4871
:104A00000078012805D100201A49087001A8FDF797
:104A10007BF8FBF77DFFA0EB0A08174800684045CC
:104A200002D21548C0F8008001AA00213846FEF7DE
:104A300093F96FE6DC690008CC000020F4690008F7
:104A40005C000020C0000020C8000020C40000203E
:104A5000801A060000093D00005A62020084D71740
:104A6000BC000020BE000020D8000020A8000020CC
:104A70006C000020BA000020D000002010B58AB0E1
:104A8000044600201F4908601F4908601F4908604C
:104A90001F4908701F4908701F48006820B946F672
:104AA0002B6020800AB010BD1C4800681C490968B2
:104AB000884203D246F62C602080F3E7194800783C
:104AC0003F2803D346F62A602080EBE7032000212D
:104AD0000591CDE907040691084610490968124A74
:104AE00012680D4B1B68CDE90132CDE903100D486A
:104AF000007800230D4A0EA100901248FDF742F9FC
:104B000000BFCFE7C0000020C8000020C400002084
:104B1000CC000020BA000020E0690008E869000825
:104B2000F0690008D8690008E4690008C94600086F
:104B300075432F4F532D49494920537461742054B4
:104B400061736B00DC37002070B504460D4645B13B
:104B50002A462146064800F0D1FE032084F836009C
:104B600002E0022084F836002046FFF7DBFB70BD30
:104B7000F00000202DE9F04104460D4600BF00265C
:104B800094F8377094F8360008285FD2DFE800F018
:104B900004191E1F1A1B20212046FFF7C3FB84F8AF
:104BA000375094F83700FFF741FA2C4800688442E8
:104BB00003D12046FFF756FB02E02046FFF772FBC9
:104BC00046E000BF00BF84F8375041E000BF00BF9F
:104BD00000BF84F8375094F83400082831D2DFE859
:104BE00000F0300431050B06073200BF00BF00BFE4
:104BF0002046FFF7E9F827E02046FFF7E5F8206BAD
:104C0000C068466AAF4205DD96F83700A84217DC57
:104C1000002615E096F83700B84211D13046FFF76C
:104C20001BF8054696F83800A84202DA96F83800D4
:104C300000E02846054696F83700A84200D1002635
:104C400002E000BF00BF00BF00BF01E0BDE8F0818F
:104C500000BF3446002C92D100BFF7E718010020B6
:104C60000021C0F8C0100949096819B90021C0F82D
:104C7000C41007E005490968C0F8C4100349096871
:104C8000C1F8C0000149086070470000D80000204A
:104C9000D0F8C020D0F8C4104AB90D4B196011B13A
:104CA0000023C1F8C0300023C0F8C4300FE029B998
:104CB0000023C2F8C430C0F8C03008E0C2F8C41005
:104CC000C1F8C0200023C0F8C430C0F8C03070471D
:104CD000D80000200021044A1160044A1180044ACF
:104CE0001160018070470000D8000020DC00002027
:104CF000D400002070B5044600202060A0606060F1
:104D0000E06020616061A061E0612BA02062002072
:104D10006062A062E0622063A4F84600A06420669E
:104D2000A4F86400002104F16800FEF7BFFE002033
:104D300044F8780F6060E060A0822061783C002534
:104D400006E0002104F1800040F82510681CC5B27F
:104D5000002DF6D000203434A0616067A067E060C9
:104D600084F85A00C4F88000E0672082E061206285
:104D70006062A062A4F85C00A4F85E002066606631
:104D8000FBF7C6FD0646A6660020E066C4F8840070
:104D9000C4F8880020706070A0704020E07020711E
:104DA0000020A060C4F88C00C4F8900004A0C4F8EF
:104DB0009400343C70BD00003F5461736B000000F0
:104DC000200000002DE9FC4704460F469046994616
:104DD000DDE90A654FF0000A0020288000BF00BF0F
:104DE00000BFFBF717FA824600BFFBF701FD00BFCB
:104DF0008C480078401C8B490870084600780128D0
:104E000001D1FFF7E7FA00BFFBF70CFD00BF5046EA
:104E1000FBF704FA00BF00BF00BF0CB9824804686A
:104E200094F8360008287CD2DFE800F004054849F1
:104E300006074A4B00BF00BF00BF4B4642463946FB
:104E400004F16800CDE90065FEF738FE00BF00BF41
:104E500000BFFBF7DFF9824600BFFBF7C9FC00BFCC
:104E600070480078401E6F49087008460078D0B935
:104E7000FFF7BEFA6D48008800280BDD00BFFBF786
:104E8000D1FC00BF5046FBF7C9F900BF00BFFFF7D8
:104E900077FA11E000BFFBF7C5FC00BF5046FBF7F7
:104EA000BDF900BF08E000BFFBF7BCFC00BF5046E7
:104EB000FBF7B4F900BF00BF00BFAFE000BF00BF09
:104EC00000BF94F8340002282CD143463A462146CC
:104ED00000200096FFF708F800BF00BF00BFFBF7F7
:104EE00099F9824600BFFBF783FC00BF4D4800786C
:104EF000401E4C4908700846007808B9FFF778FA58
:104F000000BFFBF78FFC00BF5046FBF787F900BFDF
:104F100000BF00BF09F40040002843D1FCF7BEFCED
:104F200040E040E04B464246394604F16800CDE996
:104F30000065FEF7C3FD00BF00BF00BFFBF76AF9C5
:104F4000824600BFFBF754FC00BF36480078401E85
:104F50003449087008460078D0B9FFF749FA334859
:104F6000008800280BDD00BFFBF75CFC00BF50464B
:104F7000FBF754F900BF00BFFFF702FA11E000BFD2
:104F8000FBF750FC00BF5046FBF748F900BF08E0B4
:104F900000BFFBF747FC00BF5046FBF73FF900BFDF
:104FA00000BF00BF3AE000BF00BF00BFFBF732F90F
:104FB000824600BFFBF71CFC00BF1A480078401E69
:104FC0001849087008460078D0B9FFF711FA174859
:104FD000008800280BDD00BFFBF724FC00BF504613
:104FE000FBF71CF900BF00BFFFF7CAF911E000BFD3
:104FF000FBF718FC00BF5046FBF710F900BF08E0B4
:1050000000BFFBF70FFC00BF5046FBF707F900BFDE
:1050100000BF00BF46F62D60288000BF00BFBDE87E
:10502000FC870000A8000020180100206C00002070
:1050300070B504460D46002600BF00BFFBF7EAF836
:10504000064600BFFBF7D4FB00BF0020288094F881
:10505000360008287ED2DFE800F004050607145663
:105060006A8000BF00BF00BF00BFFBF7DBFB00BFD3
:105070003046FBF7D3F800BF00BF47F2531028803B
:105080008CE000BF48480078401C4749087008463B
:105090000078012801D1FFF79DF900BFFBF7C2FBA3
:1050A00000BF3046FBF7BAF800BF00BF00BF14F8DE
:1050B0008E0F401E207014F88E0928B9002084F845
:1050C00036002046FFF7B8F800BF00BF00BFFBF76F
:1050D000A1F8064600BFFBF78BFB00BF3248007803
:1050E000401E314908700846007808B9FFF780F97A
:1050F00000BFFBF797FB00BF3046FBF78FF800BF00
:1051000000BF00BF4AE014F88E0F401E207014F854
:105110008E0910B9012084F8360000BFFBF782FB2E
:1051200000BF3046FBF77AF800BF00BF36E014F846
:105130008E0F401E207014F88E0910B9022084F8DA
:10514000360000BFFBF76EFB00BF3046FBF766F88A
:1051500000BF00E015E000BF20E014F88E0F401EF5
:10516000207014F88E0910B9032084F8360000BFAF
:10517000FBF758FB00BF3046FBF750F800BF00BFFD
:105180000CE000BFFBF74EFB00BF3046FBF746F8D4
:1051900000BF00BF46F62D60288070BD00BFFCF741
:1051A0007DFB00BFF9E70000A800002008B5044817
:1051B0000068FDF70FFA69460020FCF72FFF08BDD5
:1051C000180100202DE9F8430446884617461D467D
:1051D0004FF0000900BF00BF00BFFBF71BF881467E
:1051E00000BFFBF705FB00BFFB480078401CFA49F5
:1051F000087008460078012801D1FFF7EBF800BFDE
:10520000FBF710FB00BF4846FBF708F800BF00BFE4
:1052100000BF0CB9F1480468A7640020288094F806
:10522000360008287AD2DFE800F00405FEFD060704
:10523000FCFB00BF00BF00BF0420012804D00228EF
:1052400043D004286BD184E0E06CFF283CD100BF40
:1052500000BF00BFFAF7DEFF814600BFFBF7C8FAC8
:1052600000BFDD480078401EDB4908700846007822
:10527000D0B9FFF7BDF8DA48008800280BDD00BF81
:10528000FBF7D0FA00BF4846FAF7C8FF00BF00BFDF
:10529000FFF776F811E000BFFBF7C4FA00BF4846FD
:1052A000FAF7BCFF00BF08E000BFFBF7BBFA00BF86
:1052B0004846FAF7B3FF00BF00BF00BF46F6C5502F
:1052C00028800020BDE8F88385E04FF6FF71E06C90
:1052D00088423DD100BF00BF00BFFAF79BFF814667
:1052E00000BFFBF785FA00BFBB480078401EBA49F3
:1052F000087008460078E0B9FFF77AF8B8480088E7
:1053000000280DDD00BFFBF78DFA00BF4846FAF715
:1053100085FF00BF00BFFFF733F813E0E2E159E07B
:1053200000BFFBF77FFA00BF4846FAF777FF00BFE0
:1053300008E000BFFBF776FA00BF4846FAF76EFFB9
:1053400000BF00BF00BF46F6C55028800020B9E767
:1053500041E0E06C401CD8BB00BF00BF00BFFAF7C3
:1053600059FF814600BFFBF743FA00BF9A48007817
:10537000401E9949087008460078D0B9FFF738F800
:105380009748008800280BDD00BFFBF74BFA00BFF1
:105390004846FAF743FF00BF00BFFEF7F1FF11E0F8
:1053A00000BFFBF73FFA00BF4846FAF737FF00BFE0
:1053B00008E000BFFBF736FA00BF4846FAF72EFFB9
:1053C00000BF00BF00BF46F6C5502880002079E727
:1053D000FFE700E000BF00BFE06C401CE064E66C4B
:1053E00000BF00BF00BFFAF715FF814600BFFBF703
:1053F000FFF900BF78480078401E774908700846DA
:105400000078F8B9FEF7F4FF75480088002810DD31
:1054100000BFFBF707FA00BF4846FAF7FFFE03E0BC
:105420001EE01CE01AE018E000BF00BFFEF7A8FF76
:1054300011E000BFFBF7F6F900BF4846FAF7EEFEB1
:1054400000BF08E000BFFBF7EDF900BF4846FAF7E0
:10545000E5FE00BF00BF00BF80E100BF00BF00BF8E
:1054600094F8340007282CD100231A462146184608
:105470000097FEF739FDE66C00BF00BF00BFFAF7EA
:10548000C9FE814600BFFBF7B3F900BF5248007860
:10549000401E514908700846007808B9FEF7A8FF79
:1054A00000BFFBF7BFF900BF4846FAF7B7FE00BFE1
:1054B00000BF00BF08F40040002801D1FCF7EEF95E
:1054C0000FE10420012804D0022842D0042872D120
:1054D00089E0E06CFF283BD100BF00BF00BFFAF7B6
:1054E00099FE814600BFFBF783F900BF3A48007878
:1054F000401E3949087008460078D0B9FEF778FF99
:105500003748008800280BDD00BFFBF78BF900BF90
:105510004846FAF783FE00BF00BFFEF731FF11E0F7
:1055200000BFFBF77FF900BF4846FAF777FE00BFE0
:1055300008E000BFFBF776F900BF4846FAF76EFEB9
:1055400000BF00BF00BF46F6C55028800020B9E666
:105550008BE04FF6FF71E06C884243D100BF00BF83
:1055600000BFFAF757FE814600BFFBF741F900BFC5
:1055700019480078401E1849087008460078D8B9C4
:10558000FEF736FF1648008800280BDD00BFFBF74A
:1055900049F900BF4846FAF741FE00BF00BFFEF7D9
:1055A000EFFE12E000BFFBF73DF900BF4846FAF7F7
:1055B00035FE00BF09E057E000BFFBF733F900BF3D
:1055C0004846FAF72BFE00BF00BF00BF46F6C550A5
:1055D0002880002076E60000A800002018010020A6
:1055E0006C00002041E0E06C401CD8BB00BF00BF55
:1055F00000BFFAF70FFE814600BFFBF7F9F800BFC6
:1056000058480078401E5749087008460078D0B9BD
:10561000FEF7EEFE5448008800280BDD00BFFBF7C4
:1056200001F900BF4846FAF7F9FD00BF00BFFEF7D9
:10563000A7FE11E000BFFBF7F5F800BF4846FAF7F8
:10564000EDFD00BF08E000BFFBF7ECF800BF4846E7
:10565000FAF7E4FD00BF00BF00BF46F6C550288042
:1056600000202FE6FFE700E000BF00BFE06C401C19
:10567000E064E66C00BF00BF00BFFAF7CBFD8146D7
:1056800000BFFBF7B5F800BF36480078401E35492B
:10569000087008460078D0B9FEF7AAFE32480088A4
:1056A00000280BDD00BFFBF7BDF800BF4846FAF746
:1056B000B5FD00BF00BFFEF763FE11E000BFFBF7C2
:1056C000B1F800BF4846FAF7A9FD00BF08E000BFE7
:1056D000FBF7A8F800BF4846FAF7A0FD00BF00BFDF
:1056E00000BF3BE000BF00BF00BFFAF793FD81465B
:1056F00000BFFBF77DF800BF1A480078401E19492B
:10570000087008460078D0B9FEF772FE1648008887
:1057100000280BDD00BFFBF785F800BF4846FAF70D
:105720007DFD00BF00BFFEF72BFE11E000BFFBF7C1
:1057300079F800BF4846FAF771FD00BF08E000BFE6
:10574000FBF770F800BF4846FAF768FD00BF00BFDE
:1057500000BF46F62D602880002600BF00BF3046FF
:10576000B0E50000A80000206C00002070B50446E1
:105770000D46002600BF00BFFAF74CFD064600BFED
:10578000FBF736F800BF0CB95A480468594800685E
:10579000844210D15848007800280CDD00BFFBF788
:1057A00041F800BF3046FAF739FD00BF00BF46F6AA
:1057B0006350288070BD0020288094F836000828A7
:1057C00073D2DFE800F0044252627374757600BF52
:1057D00049480078401C484908700846007801286C
:1057E00001D1FEF7F7FD00BFFBF71CF800BF304604
:1057F000FAF714FD00BF00BF00BF042084F8360094
:10580000012084F88E002046FEF78CFD00BF00BF0B
:1058100000BFFAF7FFFC064600BFFAF7E9FF00BF3A
:1058200035480078401E344908700846007808B9A9
:10583000FEF7DEFD00BFFAF7F5FF00BF3046FAF7CE
:10584000EDFC00BF00BF00BF4FE0052084F836002C
:10585000012084F88E0000BFFAF7E4FF00BF304655
:10586000FAF7DCFC00BF00BF3FE0062084F83600FA
:10587000012084F88E0000BFFAF7D4FF00BF304645
:10588000FAF7CCFC00BF00BF2FE0072084F83600F9
:10589000012084F88E0000BFFAF7C4FF00BF304635
:1058A000FAF7BCFC00BF00BF1FE011E000BF00BF63
:1058B00000BF94F88E00401C84F88E0000BFFAF7F9
:1058C000B1FF00BF3046FAF7A9FC00BF00BF0CE0F3
:1058D00000BFFAF7A7FF00BF3046FAF79FFC00BFF2
:1058E00000BF46F62D60288064E700BFFBF7D6FFB7
:1058F00000BF5FE718010020A800002070B5154622
:10590000066846B90D6500264E618E61C86101606A
:105910000126868033E0046802682B4624E0166D79
:105920009E421DD396696EB90B6500268E614A6151
:10593000C861166DF61A1665916101608688761C3D
:1059400086800CE094690B658C614A61C861166DB4
:10595000F61A1665916161618688761C868070BD35
:10596000166D9B1B14465269002AD8D10B658C61B9
:1059700000264E61C86161618688761C868000BF02
:10598000EDE700002DE9F04104460D4690461F4624
:10599000B8F1040F0ED1284800682E1A16F5803F82
:1059A00001D8002E3CD10020206547F27E203880AF
:1059B000BDE8F081B8F1080F29D11F49606D096871
:1059C000081AA84205D92E461B480068284460657D
:1059D00026E01949606D0968081A2E1A16F5803FED
:1059E00000D886B91449606D0968081AB0FBF5F053
:1059F00005FB0050616D084460650020206547F29A
:105A00007E203880D4E7606D2844606508E00DB1E1
:105A10002E4605E00020206547F27E203880C7E74B
:105A2000012084F83600324621460448FFF766FF1D
:105A30000020388000BFBBE7E0000020E800002025
:105A400030B5C26983694169ABB929B900241460D2
:105A500094800465C4611EE000248C610C6D056DAA
:105A60002C440C6511609488641E94800024446169
:105A70000465C4610FE0596121B18B610C6D056D46
:105A80002C440C65002484619488641E9480002456
:105A900044610465C46130BD704700002DE9F047E2
:105AA0004FF0000900BF00BF00BFFAF7B3FB81460B
:105AB00000BFFAF79DFE00BF41480078401C4049F6
:105AC000087008460078012801D1FEF783FC00BF6A
:105AD000FAF7A8FE00BF4846FAF7A0FB00BF00BFD8
